{
  "contractName": "TitleEscrow",
  "abi": [
    {
      "inputs": [
        {
          "internalType": "contract ERC721",
          "name": "_tokenRegistry",
          "type": "address"
        },
        {
          "internalType": "address",
          "name": "_beneficiary",
          "type": "address"
        },
        {
          "internalType": "address",
          "name": "_holder",
          "type": "address"
        },
        {
          "internalType": "address",
          "name": "_titleEscrowFactoryAddress",
          "type": "address"
        }
      ],
      "payable": false,
      "stateMutability": "nonpayable",
      "type": "constructor"
    },
    {
      "anonymous": false,
      "inputs": [
        {
          "indexed": true,
          "internalType": "address",
          "name": "previousHolder",
          "type": "address"
        },
        {
          "indexed": true,
          "internalType": "address",
          "name": "newHolder",
          "type": "address"
        }
      ],
      "name": "HolderChanged",
      "type": "event"
    },
    {
      "anonymous": false,
      "inputs": [
        {
          "indexed": true,
          "internalType": "address",
          "name": "_tokenRegistry",
          "type": "address"
        },
        {
          "indexed": true,
          "internalType": "address",
          "name": "_to",
          "type": "address"
        },
        {
          "indexed": true,
          "internalType": "uint256",
          "name": "_id",
          "type": "uint256"
        }
      ],
      "name": "TitleCeded",
      "type": "event"
    },
    {
      "anonymous": false,
      "inputs": [
        {
          "indexed": true,
          "internalType": "address",
          "name": "_tokenRegistry",
          "type": "address"
        },
        {
          "indexed": true,
          "internalType": "address",
          "name": "_from",
          "type": "address"
        },
        {
          "indexed": true,
          "internalType": "uint256",
          "name": "_id",
          "type": "uint256"
        }
      ],
      "name": "TitleReceived",
      "type": "event"
    },
    {
      "anonymous": false,
      "inputs": [
        {
          "indexed": true,
          "internalType": "uint256",
          "name": "_tokenid",
          "type": "uint256"
        },
        {
          "indexed": true,
          "internalType": "address",
          "name": "_from",
          "type": "address"
        },
        {
          "indexed": true,
          "internalType": "address",
          "name": "_to",
          "type": "address"
        }
      ],
      "name": "TransferOwnerApproval",
      "type": "event"
    },
    {
      "anonymous": false,
      "inputs": [
        {
          "indexed": true,
          "internalType": "address",
          "name": "newBeneficiary",
          "type": "address"
        },
        {
          "indexed": true,
          "internalType": "address",
          "name": "newHolder",
          "type": "address"
        }
      ],
      "name": "TransferTitleEscrowApproval",
      "type": "event"
    },
    {
      "payable": true,
      "stateMutability": "payable",
      "type": "fallback"
    },
    {
      "constant": true,
      "inputs": [],
      "name": "_tokenId",
      "outputs": [
        {
          "internalType": "uint256",
          "name": "",
          "type": "uint256"
        }
      ],
      "payable": false,
      "stateMutability": "view",
      "type": "function"
    },
    {
      "constant": true,
      "inputs": [],
      "name": "approvedBeneficiary",
      "outputs": [
        {
          "internalType": "address",
          "name": "",
          "type": "address"
        }
      ],
      "payable": false,
      "stateMutability": "view",
      "type": "function"
    },
    {
      "constant": true,
      "inputs": [],
      "name": "approvedHolder",
      "outputs": [
        {
          "internalType": "address",
          "name": "",
          "type": "address"
        }
      ],
      "payable": false,
      "stateMutability": "view",
      "type": "function"
    },
    {
      "constant": true,
      "inputs": [],
      "name": "approvedOwner",
      "outputs": [
        {
          "internalType": "address",
          "name": "",
          "type": "address"
        }
      ],
      "payable": false,
      "stateMutability": "view",
      "type": "function"
    },
    {
      "constant": true,
      "inputs": [],
      "name": "beneficiary",
      "outputs": [
        {
          "internalType": "address",
          "name": "",
          "type": "address"
        }
      ],
      "payable": false,
      "stateMutability": "view",
      "type": "function"
    },
    {
      "constant": true,
      "inputs": [],
      "name": "buyBackPrice",
      "outputs": [
        {
          "internalType": "uint256",
          "name": "",
          "type": "uint256"
        }
      ],
      "payable": false,
      "stateMutability": "view",
      "type": "function"
    },
    {
      "constant": true,
      "inputs": [],
      "name": "contractDest",
      "outputs": [
        {
          "internalType": "address",
          "name": "",
          "type": "address"
        }
      ],
      "payable": false,
      "stateMutability": "view",
      "type": "function"
    },
    {
      "constant": true,
      "inputs": [],
      "name": "holder",
      "outputs": [
        {
          "internalType": "address",
          "name": "",
          "type": "address"
        }
      ],
      "payable": false,
      "stateMutability": "view",
      "type": "function"
    },
    {
      "constant": true,
      "inputs": [],
      "name": "status",
      "outputs": [
        {
          "internalType": "enum TitleEscrow.StatusTypes",
          "name": "",
          "type": "uint8"
        }
      ],
      "payable": false,
      "stateMutability": "view",
      "type": "function"
    },
    {
      "constant": true,
      "inputs": [
        {
          "internalType": "bytes4",
          "name": "interfaceId",
          "type": "bytes4"
        }
      ],
      "name": "supportsInterface",
      "outputs": [
        {
          "internalType": "bool",
          "name": "",
          "type": "bool"
        }
      ],
      "payable": false,
      "stateMutability": "view",
      "type": "function"
    },
    {
      "constant": true,
      "inputs": [],
      "name": "titleEscrowFactory",
      "outputs": [
        {
          "internalType": "contract ITitleEscrowCreator",
          "name": "",
          "type": "address"
        }
      ],
      "payable": false,
      "stateMutability": "view",
      "type": "function"
    },
    {
      "constant": true,
      "inputs": [],
      "name": "tokenPrice",
      "outputs": [
        {
          "internalType": "uint256",
          "name": "",
          "type": "uint256"
        }
      ],
      "payable": false,
      "stateMutability": "view",
      "type": "function"
    },
    {
      "constant": true,
      "inputs": [],
      "name": "tokenRegistry",
      "outputs": [
        {
          "internalType": "contract ERC721",
          "name": "",
          "type": "address"
        }
      ],
      "payable": false,
      "stateMutability": "view",
      "type": "function"
    },
    {
      "constant": false,
      "inputs": [
        {
          "internalType": "uint256",
          "name": "price",
          "type": "uint256"
        },
        {
          "internalType": "uint256",
          "name": "price2",
          "type": "uint256"
        },
        {
          "internalType": "address",
          "name": "dest",
          "type": "address"
        }
      ],
      "name": "setTokenDeal",
      "outputs": [],
      "payable": false,
      "stateMutability": "nonpayable",
      "type": "function"
    },
    {
      "constant": true,
      "inputs": [],
      "name": "getTokenDeal",
      "outputs": [
        {
          "internalType": "uint256",
          "name": "",
          "type": "uint256"
        },
        {
          "internalType": "uint256",
          "name": "",
          "type": "uint256"
        },
        {
          "internalType": "address",
          "name": "",
          "type": "address"
        }
      ],
      "payable": false,
      "stateMutability": "view",
      "type": "function"
    },
    {
      "constant": true,
      "inputs": [],
      "name": "getTokenPrice",
      "outputs": [
        {
          "internalType": "uint256",
          "name": "",
          "type": "uint256"
        }
      ],
      "payable": false,
      "stateMutability": "view",
      "type": "function"
    },
    {
      "constant": true,
      "inputs": [],
      "name": "getBuyBackPrice",
      "outputs": [
        {
          "internalType": "uint256",
          "name": "",
          "type": "uint256"
        }
      ],
      "payable": false,
      "stateMutability": "view",
      "type": "function"
    },
    {
      "constant": true,
      "inputs": [],
      "name": "getContractDest",
      "outputs": [
        {
          "internalType": "address",
          "name": "",
          "type": "address"
        }
      ],
      "payable": false,
      "stateMutability": "view",
      "type": "function"
    },
    {
      "constant": true,
      "inputs": [],
      "name": "getBalance",
      "outputs": [
        {
          "internalType": "uint256",
          "name": "",
          "type": "uint256"
        }
      ],
      "payable": false,
      "stateMutability": "view",
      "type": "function"
    },
    {
      "constant": false,
      "inputs": [],
      "name": "buyToken",
      "outputs": [],
      "payable": true,
      "stateMutability": "payable",
      "type": "function"
    },
    {
      "constant": false,
      "inputs": [],
      "name": "buyBackToken",
      "outputs": [],
      "payable": true,
      "stateMutability": "payable",
      "type": "function"
    },
    {
      "constant": false,
      "inputs": [
        {
          "internalType": "address",
          "name": "operator",
          "type": "address"
        },
        {
          "internalType": "address",
          "name": "from",
          "type": "address"
        },
        {
          "internalType": "uint256",
          "name": "tokenId",
          "type": "uint256"
        },
        {
          "internalType": "bytes",
          "name": "data",
          "type": "bytes"
        }
      ],
      "name": "onERC721Received",
      "outputs": [
        {
          "internalType": "bytes4",
          "name": "",
          "type": "bytes4"
        }
      ],
      "payable": false,
      "stateMutability": "nonpayable",
      "type": "function"
    },
    {
      "constant": false,
      "inputs": [
        {
          "internalType": "address",
          "name": "newHolder",
          "type": "address"
        }
      ],
      "name": "changeHolder",
      "outputs": [],
      "payable": false,
      "stateMutability": "nonpayable",
      "type": "function"
    },
    {
      "constant": false,
      "inputs": [
        {
          "internalType": "address",
          "name": "newOwner",
          "type": "address"
        }
      ],
      "name": "approveNewOwner",
      "outputs": [],
      "payable": false,
      "stateMutability": "nonpayable",
      "type": "function"
    },
    {
      "constant": false,
      "inputs": [
        {
          "internalType": "address",
          "name": "newOwner",
          "type": "address"
        }
      ],
      "name": "transferTo",
      "outputs": [],
      "payable": false,
      "stateMutability": "nonpayable",
      "type": "function"
    },
    {
      "constant": false,
      "inputs": [
        {
          "internalType": "address",
          "name": "newBeneficiary",
          "type": "address"
        },
        {
          "internalType": "address",
          "name": "newHolder",
          "type": "address"
        }
      ],
      "name": "transferToNewEscrow",
      "outputs": [],
      "payable": false,
      "stateMutability": "nonpayable",
      "type": "function"
    },
    {
      "constant": false,
      "inputs": [
        {
          "internalType": "address",
          "name": "newBeneficiary",
          "type": "address"
        },
        {
          "internalType": "address",
          "name": "newHolder",
          "type": "address"
        }
      ],
      "name": "approveNewTransferTargets",
      "outputs": [],
      "payable": false,
      "stateMutability": "nonpayable",
      "type": "function"
    }
  ],
  "bytecode": "0x60806040526000600360006101000a81548160ff021916908360028111156200002457fe5b02179055503480156200003657600080fd5b5060405162003d3d38038062003d3d833981810160405260808110156200005c57600080fd5b81019080805190602001909291908051906020019092919080519060200190929190805190602001909291905050508183806000806101000a81548173ffffffffffffffffffffffffffffffffffffffff021916908373ffffffffffffffffffffffffffffffffffffffff1602179055505080600160006101000a81548173ffffffffffffffffffffffffffffffffffffffff021916908373ffffffffffffffffffffffffffffffffffffffff1602179055508073ffffffffffffffffffffffffffffffffffffffff16600073ffffffffffffffffffffffffffffffffffffffff167f076c2af751a37d3871addf9a6fdedbaf3827fb030bf1d04c43a1421420fcc98760405160405180910390a350620001836301ffc9a760e01b6200022760201b60201c565b83600360016101000a81548173ffffffffffffffffffffffffffffffffffffffff021916908373ffffffffffffffffffffffffffffffffffffffff16021790555080600760006101000a81548173ffffffffffffffffffffffffffffffffffffffff021916908373ffffffffffffffffffffffffffffffffffffffff1602179055506200021d63dcce221160e01b6200022760201b60201c565b5050505062000331565b63ffffffff60e01b817bffffffffffffffffffffffffffffffffffffffffffffffffffffffff19161415620002c4576040517f08c379a000000000000000000000000000000000000000000000000000000000815260040180806020018281038252601c8152602001807f4552433136353a20696e76616c696420696e746572666163652069640000000081525060200191505060405180910390fd5b600160026000837bffffffffffffffffffffffffffffffffffffffffffffffffffffffff19167bffffffffffffffffffffffffffffffffffffffffffffffffffffffff1916815260200190815260200160002060006101000a81548160ff02191690831515021790555050565b6139fc80620003416000396000f3fe60806040526004361061019c5760003560e01c80634b94f50e116100ec578063a48217191161008a578063d5ce716c11610064578063d5ce716c14610942578063e23000a0146109a7578063e366ab30146109d2578063e534155d14610a435761019c565b8063a4821719146108d7578063ab68dd19146108e1578063d4b56610146108eb5761019c565b80637ff9b596116100c65780637ff9b5961461079f57806388c29148146107ca5780639d23c4c71461082f578063a03fa7e3146108865761019c565b80634b94f50e146106b25780635a87db75146106dd57806374bbb3501461072e5761019c565b80631fe2b08a11610159578063308cdb8811610133578063308cdb8814610582578063325689f9146105ad57806338af3eed1461060457806340d3f7fa1461065b5761019c565b80631fe2b08a146104c7578063200d2ed21461051e57806324822514146105575761019c565b806301ffc9a71461020957806303f0736d1461027b57806307188c2d146102cc5780630cb258b71461032357806312065fe01461037a578063150b7a02146103a5575b6000809054906101000a900473ffffffffffffffffffffffffffffffffffffffff1673ffffffffffffffffffffffffffffffffffffffff163373ffffffffffffffffffffffffffffffffffffffff1614156101fe576101f9610a9a565b610207565b610206610ed3565b5b005b34801561021557600080fd5b506102616004803603602081101561022c57600080fd5b8101908080357bffffffffffffffffffffffffffffffffffffffffffffffffffffffff19169060200190929190505050611267565b604051808215151515815260200191505060405180910390f35b34801561028757600080fd5b506102ca6004803603602081101561029e57600080fd5b81019080803573ffffffffffffffffffffffffffffffffffffffff1690602001909291905050506112cf565b005b3480156102d857600080fd5b506102e16115fb565b604051808273ffffffffffffffffffffffffffffffffffffffff1673ffffffffffffffffffffffffffffffffffffffff16815260200191505060405180910390f35b34801561032f57600080fd5b50610338611621565b604051808273ffffffffffffffffffffffffffffffffffffffff1673ffffffffffffffffffffffffffffffffffffffff16815260200191505060405180910390f35b34801561038657600080fd5b5061038f611647565b6040518082815260200191505060405180910390f35b3480156103b157600080fd5b50610473600480360360808110156103c857600080fd5b81019080803573ffffffffffffffffffffffffffffffffffffffff169060200190929190803573ffffffffffffffffffffffffffffffffffffffff169060200190929190803590602001909291908035906020019064010000000081111561042f57600080fd5b82018360208201111561044157600080fd5b8035906020019184600183028401116401000000008311171561046357600080fd5b909192939192939050505061164f565b60405180827bffffffffffffffffffffffffffffffffffffffffffffffffffffffff19167bffffffffffffffffffffffffffffffffffffffffffffffffffffffff1916815260200191505060405180910390f35b3480156104d357600080fd5b506104dc61182e565b604051808273ffffffffffffffffffffffffffffffffffffffff1673ffffffffffffffffffffffffffffffffffffffff16815260200191505060405180910390f35b34801561052a57600080fd5b50610533611854565b6040518082600281111561054357fe5b60ff16815260200191505060405180910390f35b34801561056357600080fd5b5061056c611867565b6040518082815260200191505060405180910390f35b34801561058e57600080fd5b5061059761186d565b6040518082815260200191505060405180910390f35b3480156105b957600080fd5b506105c2611877565b604051808273ffffffffffffffffffffffffffffffffffffffff1673ffffffffffffffffffffffffffffffffffffffff16815260200191505060405180910390f35b34801561061057600080fd5b5061061961189d565b604051808273ffffffffffffffffffffffffffffffffffffffff1673ffffffffffffffffffffffffffffffffffffffff16815260200191505060405180910390f35b34801561066757600080fd5b506106706118c2565b604051808273ffffffffffffffffffffffffffffffffffffffff1673ffffffffffffffffffffffffffffffffffffffff16815260200191505060405180910390f35b3480156106be57600080fd5b506106c76118ec565b6040518082815260200191505060405180910390f35b3480156106e957600080fd5b5061072c6004803603602081101561070057600080fd5b81019080803573ffffffffffffffffffffffffffffffffffffffff1690602001909291905050506118f6565b005b34801561073a57600080fd5b5061079d6004803603604081101561075157600080fd5b81019080803573ffffffffffffffffffffffffffffffffffffffff169060200190929190803573ffffffffffffffffffffffffffffffffffffffff169060200190929190505050611b6c565b005b3480156107ab57600080fd5b506107b4612221565b6040518082815260200191505060405180910390f35b3480156107d657600080fd5b506107df612227565b604051808481526020018381526020018273ffffffffffffffffffffffffffffffffffffffff1673ffffffffffffffffffffffffffffffffffffffff168152602001935050505060405180910390f35b34801561083b57600080fd5b5061084461246c565b604051808273ffffffffffffffffffffffffffffffffffffffff1673ffffffffffffffffffffffffffffffffffffffff16815260200191505060405180910390f35b34801561089257600080fd5b506108d5600480360360208110156108a957600080fd5b81019080803573ffffffffffffffffffffffffffffffffffffffff169060200190929190505050612492565b005b6108df610ed3565b005b6108e9610a9a565b005b3480156108f757600080fd5b506109006128ad565b604051808273ffffffffffffffffffffffffffffffffffffffff1673ffffffffffffffffffffffffffffffffffffffff16815260200191505060405180910390f35b34801561094e57600080fd5b506109a56004803603606081101561096557600080fd5b810190808035906020019092919080359060200190929190803573ffffffffffffffffffffffffffffffffffffffff1690602001909291905050506128d3565b005b3480156109b357600080fd5b506109bc612cee565b6040518082815260200191505060405180910390f35b3480156109de57600080fd5b50610a41600480360360408110156109f557600080fd5b81019080803573ffffffffffffffffffffffffffffffffffffffff169060200190929190803573ffffffffffffffffffffffffffffffffffffffff169060200190929190505050612cf4565b005b348015610a4f57600080fd5b50610a5861314a565b604051808273ffffffffffffffffffffffffffffffffffffffff1673ffffffffffffffffffffffffffffffffffffffff16815260200191505060405180910390f35b60006004541415610af6576040517f08c379a000000000000000000000000000000000000000000000000000000000815260040180806020018281038252602c815260200180613571602c913960400191505060405180910390fd5b60016002811115610b0357fe5b600360009054906101000a900460ff166002811115610b1e57fe5b14610b74576040517f08c379a00000000000000000000000000000000000000000000000000000000081526004018080602001828103825260238152602001806137106023913960400191505060405180910390fd5b3073ffffffffffffffffffffffffffffffffffffffff16600360019054906101000a900473ffffffffffffffffffffffffffffffffffffffff1673ffffffffffffffffffffffffffffffffffffffff16636352211e6004546040518263ffffffff1660e01b81526004018082815260200191505060206040518083038186803b158015610c0057600080fd5b505afa158015610c14573d6000803e3d6000fd5b505050506040513d6020811015610c2a57600080fd5b810190808051906020019092919050505073ffffffffffffffffffffffffffffffffffffffff1614610ca7576040517f08c379a000000000000000000000000000000000000000000000000000000000815260040180806020018281038252602f81526020018061359d602f913960400191505060405180910390fd5b600060065411610d02576040517f08c379a000000000000000000000000000000000000000000000000000000000815260040180806020018281038252604781526020018061363d6047913960600191505060405180910390fd5b600654341015610d5d576040517f08c379a000000000000000000000000000000000000000000000000000000000815260040180806020018281038252604e8152602001806136c2604e913960600191505060405180910390fd5b6000809054906101000a900473ffffffffffffffffffffffffffffffffffffffff1673ffffffffffffffffffffffffffffffffffffffff163373ffffffffffffffffffffffffffffffffffffffff1614610e02576040517f08c379a00000000000000000000000000000000000000000000000000000000081526004018080602001828103825260418152602001806137706041913960600191505060405180910390fd5b600654341115610e47573373ffffffffffffffffffffffffffffffffffffffff166108fc60065434039081150290604051600060405180830381858888f19350505050505b6000600160009054906101000a900473ffffffffffffffffffffffffffffffffffffffff1690508073ffffffffffffffffffffffffffffffffffffffff166108fc6006549081150290604051600060405180830381858888f1935050505050610ed06000809054906101000a900473ffffffffffffffffffffffffffffffffffffffff16613170565b50565b60006004541415610f2f576040517f08c379a000000000000000000000000000000000000000000000000000000000815260040180806020018281038252602c815260200180613571602c913960400191505060405180910390fd5b60016002811115610f3c57fe5b600360009054906101000a900460ff166002811115610f5757fe5b14610fad576040517f08c379a00000000000000000000000000000000000000000000000000000000081526004018080602001828103825260238152602001806137106023913960400191505060405180910390fd5b3073ffffffffffffffffffffffffffffffffffffffff16600360019054906101000a900473ffffffffffffffffffffffffffffffffffffffff1673ffffffffffffffffffffffffffffffffffffffff16636352211e6004546040518263ffffffff1660e01b81526004018082815260200191505060206040518083038186803b15801561103957600080fd5b505afa15801561104d573d6000803e3d6000fd5b505050506040513d602081101561106357600080fd5b810190808051906020019092919050505073ffffffffffffffffffffffffffffffffffffffff16146110e0576040517f08c379a000000000000000000000000000000000000000000000000000000000815260040180806020018281038252602f81526020018061359d602f913960400191505060405180910390fd5b60006005541161113b576040517f08c379a000000000000000000000000000000000000000000000000000000000815260040180806020018281038252604181526020018061381b6041913960600191505060405180910390fd5b600554341015611196576040517f08c379a00000000000000000000000000000000000000000000000000000000081526004018080602001828103825260458152602001806138da6045913960600191505060405180910390fd5b6005543411156111db573373ffffffffffffffffffffffffffffffffffffffff166108fc60055434039081150290604051600060405180830381858888f19350505050505b60008060009054906101000a900473ffffffffffffffffffffffffffffffffffffffff1690508073ffffffffffffffffffffffffffffffffffffffff166108fc6005549081150290604051600060405180830381858888f1935050505050611264600b60009054906101000a900473ffffffffffffffffffffffffffffffffffffffff16613170565b50565b600060026000837bffffffffffffffffffffffffffffffffffffffffffffffffffffffff19167bffffffffffffffffffffffffffffffffffffffffffffffffffffffff1916815260200190815260200160002060009054906101000a900460ff169050919050565b6000600454141561132b576040517f08c379a000000000000000000000000000000000000000000000000000000000815260040180806020018281038252602c815260200180613571602c913960400191505060405180910390fd5b6001600281111561133857fe5b600360009054906101000a900460ff16600281111561135357fe5b146113a9576040517f08c379a00000000000000000000000000000000000000000000000000000000081526004018080602001828103825260238152602001806137106023913960400191505060405180910390fd5b3073ffffffffffffffffffffffffffffffffffffffff16600360019054906101000a900473ffffffffffffffffffffffffffffffffffffffff1673ffffffffffffffffffffffffffffffffffffffff16636352211e6004546040518263ffffffff1660e01b81526004018082815260200191505060206040518083038186803b15801561143557600080fd5b505afa158015611449573d6000803e3d6000fd5b505050506040513d602081101561145f57600080fd5b810190808051906020019092919050505073ffffffffffffffffffffffffffffffffffffffff16146114dc576040517f08c379a000000000000000000000000000000000000000000000000000000000815260040180806020018281038252602f81526020018061359d602f913960400191505060405180910390fd5b6114e46132b6565b611539576040517f08c379a00000000000000000000000000000000000000000000000000000000081526004018080602001828103825260428152602001806138986042913960600191505060405180910390fd5b8073ffffffffffffffffffffffffffffffffffffffff166000809054906101000a900473ffffffffffffffffffffffffffffffffffffffff1673ffffffffffffffffffffffffffffffffffffffff166004547fd728b6f1bea0a163413b81fbf7301d4a193de3b5565105255108cdec8b2acddb60405160405180910390a480600a60006101000a81548173ffffffffffffffffffffffffffffffffffffffff021916908373ffffffffffffffffffffffffffffffffffffffff16021790555050565b600b60009054906101000a900473ffffffffffffffffffffffffffffffffffffffff1681565b600960009054906101000a900473ffffffffffffffffffffffffffffffffffffffff1681565b600047905090565b600080600281111561165d57fe5b600360009054906101000a900460ff16600281111561167857fe5b146116ce576040517f08c379a000000000000000000000000000000000000000000000000000000000815260040180806020018281038252602a81526020018061399e602a913960400191505060405180910390fd5b600360019054906101000a900473ffffffffffffffffffffffffffffffffffffffff1673ffffffffffffffffffffffffffffffffffffffff1661170f613314565b73ffffffffffffffffffffffffffffffffffffffff161461177b576040517f08c379a00000000000000000000000000000000000000000000000000000000081526004018080602001828103825260478152602001806139576047913960600191505060405180910390fd5b836004819055506004548573ffffffffffffffffffffffffffffffffffffffff166117a4613314565b73ffffffffffffffffffffffffffffffffffffffff167f01fcbb5289f65a5306cb0d0c6a79f53f0c1c0b245a042e3565e30c0e6104e24060405160405180910390a46001600360006101000a81548160ff0219169083600281111561180557fe5b02179055506040518080613519602f9139602f0190506040518091039020905095945050505050565b600a60009054906101000a900473ffffffffffffffffffffffffffffffffffffffff1681565b600360009054906101000a900460ff1681565b60045481565b6000600654905090565b600760009054906101000a900473ffffffffffffffffffffffffffffffffffffffff1681565b6000809054906101000a900473ffffffffffffffffffffffffffffffffffffffff1681565b6000600b60009054906101000a900473ffffffffffffffffffffffffffffffffffffffff16905090565b6000600554905090565b60006004541415611952576040517f08c379a000000000000000000000000000000000000000000000000000000000815260040180806020018281038252602c815260200180613571602c913960400191505060405180910390fd5b6001600281111561195f57fe5b600360009054906101000a900460ff16600281111561197a57fe5b146119d0576040517f08c379a00000000000000000000000000000000000000000000000000000000081526004018080602001828103825260238152602001806137106023913960400191505060405180910390fd5b3073ffffffffffffffffffffffffffffffffffffffff16600360019054906101000a900473ffffffffffffffffffffffffffffffffffffffff1673ffffffffffffffffffffffffffffffffffffffff16636352211e6004546040518263ffffffff1660e01b81526004018082815260200191505060206040518083038186803b158015611a5c57600080fd5b505afa158015611a70573d6000803e3d6000fd5b505050506040513d6020811015611a8657600080fd5b810190808051906020019092919050505073ffffffffffffffffffffffffffffffffffffffff1614611b03576040517f08c379a000000000000000000000000000000000000000000000000000000000815260040180806020018281038252602f81526020018061359d602f913960400191505060405180910390fd5b611b0b61331c565b611b60576040517f08c379a000000000000000000000000000000000000000000000000000000000815260040180806020018281038252603381526020018061360a6033913960400191505060405180910390fd5b611b6981613170565b50565b60006004541415611bc8576040517f08c379a000000000000000000000000000000000000000000000000000000000815260040180806020018281038252602c815260200180613571602c913960400191505060405180910390fd5b60016002811115611bd557fe5b600360009054906101000a900460ff166002811115611bf057fe5b14611c46576040517f08c379a00000000000000000000000000000000000000000000000000000000081526004018080602001828103825260238152602001806137106023913960400191505060405180910390fd5b3073ffffffffffffffffffffffffffffffffffffffff16600360019054906101000a900473ffffffffffffffffffffffffffffffffffffffff1673ffffffffffffffffffffffffffffffffffffffff16636352211e6004546040518263ffffffff1660e01b81526004018082815260200191505060206040518083038186803b158015611cd257600080fd5b505afa158015611ce6573d6000803e3d6000fd5b505050506040513d6020811015611cfc57600080fd5b810190808051906020019092919050505073ffffffffffffffffffffffffffffffffffffffff1614611d79576040517f08c379a000000000000000000000000000000000000000000000000000000000815260040180806020018281038252602f81526020018061359d602f913960400191505060405180910390fd5b611d8161331c565b611dd6576040517f08c379a000000000000000000000000000000000000000000000000000000000815260040180806020018281038252603381526020018061360a6033913960400191505060405180910390fd5b8181600073ffffffffffffffffffffffffffffffffffffffff168273ffffffffffffffffffffffffffffffffffffffff161415611e5e576040517f08c379a000000000000000000000000000000000000000000000000000000000815260040180806020018281038252602f8152602001806137ec602f913960400191505060405180910390fd5b600073ffffffffffffffffffffffffffffffffffffffff168173ffffffffffffffffffffffffffffffffffffffff161415611ee4576040517f08c379a000000000000000000000000000000000000000000000000000000000815260040180806020018281038252602f8152602001806137ec602f913960400191505060405180910390fd5b6000809054906101000a900473ffffffffffffffffffffffffffffffffffffffff1673ffffffffffffffffffffffffffffffffffffffff16600160009054906101000a900473ffffffffffffffffffffffffffffffffffffffff1673ffffffffffffffffffffffffffffffffffffffff16146120a757600860009054906101000a900473ffffffffffffffffffffffffffffffffffffffff1673ffffffffffffffffffffffffffffffffffffffff168273ffffffffffffffffffffffffffffffffffffffff1614612000576040517f08c379a000000000000000000000000000000000000000000000000000000000815260040180806020018281038252603d815260200180613733603d913960400191505060405180910390fd5b600960009054906101000a900473ffffffffffffffffffffffffffffffffffffffff1673ffffffffffffffffffffffffffffffffffffffff168173ffffffffffffffffffffffffffffffffffffffff16146120a6576040517f08c379a000000000000000000000000000000000000000000000000000000000815260040180806020018281038252603881526020018061391f6038913960400191505060405180910390fd5b5b6000600760009054906101000a900473ffffffffffffffffffffffffffffffffffffffff1673ffffffffffffffffffffffffffffffffffffffff1663fcd7c1df600360019054906101000a900473ffffffffffffffffffffffffffffffffffffffff1687876040518463ffffffff1660e01b8152600401808473ffffffffffffffffffffffffffffffffffffffff1673ffffffffffffffffffffffffffffffffffffffff1681526020018373ffffffffffffffffffffffffffffffffffffffff1673ffffffffffffffffffffffffffffffffffffffff1681526020018273ffffffffffffffffffffffffffffffffffffffff1673ffffffffffffffffffffffffffffffffffffffff1681526020019350505050602060405180830381600087803b1580156121d457600080fd5b505af11580156121e8573d6000803e3d6000fd5b505050506040513d60208110156121fe57600080fd5b8101908080519060200190929190505050905061221a8161337b565b5050505050565b60055481565b6000806000806004541415612287576040517f08c379a000000000000000000000000000000000000000000000000000000000815260040180806020018281038252602c815260200180613571602c913960400191505060405180910390fd5b6001600281111561229457fe5b600360009054906101000a900460ff1660028111156122af57fe5b14612305576040517f08c379a00000000000000000000000000000000000000000000000000000000081526004018080602001828103825260238152602001806137106023913960400191505060405180910390fd5b3073ffffffffffffffffffffffffffffffffffffffff16600360019054906101000a900473ffffffffffffffffffffffffffffffffffffffff1673ffffffffffffffffffffffffffffffffffffffff16636352211e6004546040518263ffffffff1660e01b81526004018082815260200191505060206040518083038186803b15801561239157600080fd5b505afa1580156123a5573d6000803e3d6000fd5b505050506040513d60208110156123bb57600080fd5b810190808051906020019092919050505073ffffffffffffffffffffffffffffffffffffffff1614612438576040517f08c379a000000000000000000000000000000000000000000000000000000000815260040180806020018281038252602f81526020018061359d602f913960400191505060405180910390fd5b600554600654600b60009054906101000a900473ffffffffffffffffffffffffffffffffffffffff16925092509250909192565b600360019054906101000a900473ffffffffffffffffffffffffffffffffffffffff1681565b600060045414156124ee576040517f08c379a000000000000000000000000000000000000000000000000000000000815260040180806020018281038252602c815260200180613571602c913960400191505060405180910390fd5b600160028111156124fb57fe5b600360009054906101000a900460ff16600281111561251657fe5b1461256c576040517f08c379a00000000000000000000000000000000000000000000000000000000081526004018080602001828103825260238152602001806137106023913960400191505060405180910390fd5b3073ffffffffffffffffffffffffffffffffffffffff16600360019054906101000a900473ffffffffffffffffffffffffffffffffffffffff1673ffffffffffffffffffffffffffffffffffffffff16636352211e6004546040518263ffffffff1660e01b81526004018082815260200191505060206040518083038186803b1580156125f857600080fd5b505afa15801561260c573d6000803e3d6000fd5b505050506040513d602081101561262257600080fd5b810190808051906020019092919050505073ffffffffffffffffffffffffffffffffffffffff161461269f576040517f08c379a000000000000000000000000000000000000000000000000000000000815260040180806020018281038252602f81526020018061359d602f913960400191505060405180910390fd5b6126a761331c565b6126fc576040517f08c379a000000000000000000000000000000000000000000000000000000000815260040180806020018281038252603381526020018061360a6033913960400191505060405180910390fd5b80600073ffffffffffffffffffffffffffffffffffffffff168173ffffffffffffffffffffffffffffffffffffffff161415612783576040517f08c379a000000000000000000000000000000000000000000000000000000000815260040180806020018281038252602f8152602001806137ec602f913960400191505060405180910390fd5b6000809054906101000a900473ffffffffffffffffffffffffffffffffffffffff1673ffffffffffffffffffffffffffffffffffffffff16600160009054906101000a900473ffffffffffffffffffffffffffffffffffffffff1673ffffffffffffffffffffffffffffffffffffffff16146128a057600a60009054906101000a900473ffffffffffffffffffffffffffffffffffffffff1673ffffffffffffffffffffffffffffffffffffffff168173ffffffffffffffffffffffffffffffffffffffff161461289f576040517f08c379a000000000000000000000000000000000000000000000000000000000815260040180806020018281038252603b8152602001806137b1603b913960400191505060405180910390fd5b5b6128a98261337b565b5050565b600860009054906101000a900473ffffffffffffffffffffffffffffffffffffffff1681565b6000600454141561292f576040517f08c379a000000000000000000000000000000000000000000000000000000000815260040180806020018281038252602c815260200180613571602c913960400191505060405180910390fd5b6001600281111561293c57fe5b600360009054906101000a900460ff16600281111561295757fe5b146129ad576040517f08c379a00000000000000000000000000000000000000000000000000000000081526004018080602001828103825260238152602001806137106023913960400191505060405180910390fd5b3073ffffffffffffffffffffffffffffffffffffffff16600360019054906101000a900473ffffffffffffffffffffffffffffffffffffffff1673ffffffffffffffffffffffffffffffffffffffff16636352211e6004546040518263ffffffff1660e01b81526004018082815260200191505060206040518083038186803b158015612a3957600080fd5b505afa158015612a4d573d6000803e3d6000fd5b505050506040513d6020811015612a6357600080fd5b810190808051906020019092919050505073ffffffffffffffffffffffffffffffffffffffff1614612ae0576040517f08c379a000000000000000000000000000000000000000000000000000000000815260040180806020018281038252602f81526020018061359d602f913960400191505060405180910390fd5b612ae861331c565b612b3d576040517f08c379a000000000000000000000000000000000000000000000000000000000815260040180806020018281038252603381526020018061360a6033913960400191505060405180910390fd5b600060055414612b98576040517f08c379a000000000000000000000000000000000000000000000000000000000815260040180806020018281038252603c81526020018061385c603c913960400191505060405180910390fd5b600060065414612bf3576040517f08c379a000000000000000000000000000000000000000000000000000000000815260040180806020018281038252603e8152602001806135cc603e913960400191505060405180910390fd5b600073ffffffffffffffffffffffffffffffffffffffff16600b60009054906101000a900473ffffffffffffffffffffffffffffffffffffffff1673ffffffffffffffffffffffffffffffffffffffff1614612c9a576040517f08c379a000000000000000000000000000000000000000000000000000000000815260040180806020018281038252603e815260200180613684603e913960400191505060405180910390fd5b826005819055508160068190555080600b60006101000a81548173ffffffffffffffffffffffffffffffffffffffff021916908373ffffffffffffffffffffffffffffffffffffffff160217905550505050565b60065481565b612cfc6132b6565b612d51576040517f08c379a00000000000000000000000000000000000000000000000000000000081526004018080602001828103825260428152602001806138986042913960600191505060405180910390fd5b60006004541415612dad576040517f08c379a000000000000000000000000000000000000000000000000000000000815260040180806020018281038252602c815260200180613571602c913960400191505060405180910390fd5b60016002811115612dba57fe5b600360009054906101000a900460ff166002811115612dd557fe5b14612e2b576040517f08c379a00000000000000000000000000000000000000000000000000000000081526004018080602001828103825260238152602001806137106023913960400191505060405180910390fd5b3073ffffffffffffffffffffffffffffffffffffffff16600360019054906101000a900473ffffffffffffffffffffffffffffffffffffffff1673ffffffffffffffffffffffffffffffffffffffff16636352211e6004546040518263ffffffff1660e01b81526004018082815260200191505060206040518083038186803b158015612eb757600080fd5b505afa158015612ecb573d6000803e3d6000fd5b505050506040513d6020811015612ee157600080fd5b810190808051906020019092919050505073ffffffffffffffffffffffffffffffffffffffff1614612f5e576040517f08c379a000000000000000000000000000000000000000000000000000000000815260040180806020018281038252602f81526020018061359d602f913960400191505060405180910390fd5b600073ffffffffffffffffffffffffffffffffffffffff168273ffffffffffffffffffffffffffffffffffffffff161415612fe4576040517f08c379a000000000000000000000000000000000000000000000000000000000815260040180806020018281038252602f8152602001806137ec602f913960400191505060405180910390fd5b600073ffffffffffffffffffffffffffffffffffffffff168173ffffffffffffffffffffffffffffffffffffffff16141561306a576040517f08c379a000000000000000000000000000000000000000000000000000000000815260040180806020018281038252602f8152602001806137ec602f913960400191505060405180910390fd5b8073ffffffffffffffffffffffffffffffffffffffff168273ffffffffffffffffffffffffffffffffffffffff167f69e959981ba8324fe4ac2cc8441dfcac87573494c77536baaf7acee6c51b7b6d60405160405180910390a381600860006101000a81548173ffffffffffffffffffffffffffffffffffffffff021916908373ffffffffffffffffffffffffffffffffffffffff16021790555080600960006101000a81548173ffffffffffffffffffffffffffffffffffffffff021916908373ffffffffffffffffffffffffffffffffffffffff1602179055505050565b600160009054906101000a900473ffffffffffffffffffffffffffffffffffffffff1681565b600073ffffffffffffffffffffffffffffffffffffffff168173ffffffffffffffffffffffffffffffffffffffff1614156131f6576040517f08c379a00000000000000000000000000000000000000000000000000000000081526004018080602001828103825260298152602001806135486029913960400191505060405180910390fd5b8073ffffffffffffffffffffffffffffffffffffffff16600160009054906101000a900473ffffffffffffffffffffffffffffffffffffffff1673ffffffffffffffffffffffffffffffffffffffff167f076c2af751a37d3871addf9a6fdedbaf3827fb030bf1d04c43a1421420fcc98760405160405180910390a380600160006101000a81548173ffffffffffffffffffffffffffffffffffffffff021916908373ffffffffffffffffffffffffffffffffffffffff16021790555050565b60008060009054906101000a900473ffffffffffffffffffffffffffffffffffffffff1673ffffffffffffffffffffffffffffffffffffffff166132f8613314565b73ffffffffffffffffffffffffffffffffffffffff1614905090565b600033905090565b6000600160009054906101000a900473ffffffffffffffffffffffffffffffffffffffff1673ffffffffffffffffffffffffffffffffffffffff1661335f613314565b73ffffffffffffffffffffffffffffffffffffffff1614905090565b6002600360006101000a81548160ff0219169083600281111561339a57fe5b02179055506004548173ffffffffffffffffffffffffffffffffffffffff16600360019054906101000a900473ffffffffffffffffffffffffffffffffffffffff1673ffffffffffffffffffffffffffffffffffffffff167fcf31cbde15ae9b0bfff5442830acd2764cad8da3394f189aa10c5a932e5b295560405160405180910390a4600360019054906101000a900473ffffffffffffffffffffffffffffffffffffffff1673ffffffffffffffffffffffffffffffffffffffff166342842e0e30836004546040518463ffffffff1660e01b8152600401808473ffffffffffffffffffffffffffffffffffffffff1673ffffffffffffffffffffffffffffffffffffffff1681526020018373ffffffffffffffffffffffffffffffffffffffff1673ffffffffffffffffffffffffffffffffffffffff1681526020018281526020019350505050600060405180830381600087803b1580156134fd57600080fd5b505af1158015613511573d6000803e3d6000fd5b505050505056fe6f6e455243373231526563656976656428616464726573732c616464726573732c75696e743235362c627974657329486173486f6c6465723a206e657720686f6c64657220697320746865207a65726f20616464726573735469746c65457363726f773a20436f6e7472616374206973206e6f7420686f6c64696e67206120746f6b656e5469746c65457363726f773a20436f6e7472616374206973206e6f7420746865206f776e6572206f6620746f6b656e5469746c65457363726f7720736574546f6b656e4465616c3a2043616e6e6f742061646a757374206275794261636b507269636520616674657220736574486173486f6c6465723a206f6e6c792074686520686f6c646572206d617920696e766f6b6520746869732066756e6374696f6e5469746c65457363726f77206275794261636b546f6b656e3a206275794261636b507269636520776173206e6f74207365742c207468757320796f752063616e6e6f74206275795469746c65457363726f7720736574546f6b656e4465616c3a2043616e6e6f742061646a75737420636f6e747261637444657374206166746572207365745469746c65457363726f77206275794261636b546f6b656e3a2068617665206e6f7420726563656976656420656e6f7567682066756e647320746f20627579206261636b2074686520746f6b656e5469746c65457363726f773a20436f6e7472616374206973206e6f7420696e207573655469746c65457363726f773a2042656e656669636961727920686173206e6f74206265656e20656e646f727365642062792062656e65666963696172795469746c65457363726f77206275794261636b546f6b656e3a206f6e6c792062656e65666963696172792063616e20627579206261636b2074686520746f6b656e5469746c65457363726f773a204e6577206f776e657220686173206e6f74206265656e20617070726f7665642062792062656e65666963696172795469746c65457363726f773a205472616e7366657272696e6720746f20307830206973206e6f7420616c6c6f7765645469746c65457363726f7720627579546f6b656e3a20746f6b656e507269636520776173206e6f74207365742c207468757320796f752063616e6e6f74206275795469746c65457363726f7720736574546f6b656e4465616c3a2043616e6e6f742061646a75737420746f6b656e5072696365206166746572207365744861734e616d656442656e65666963696172793a206f6e6c79207468652062656e6566696369617279206d617920696e766f6b6520746869732066756e6374696f6e5469746c65457363726f7720627579546f6b656e3a2068617665206e6f7420726563656976656420656e6f7567682066756e647320746f206275792074686520746f6b656e5469746c65457363726f773a20486f6c64657220686173206e6f74206265656e20656e646f727365642062792062656e65666963696172795469746c65457363726f773a204f6e6c7920746f6b656e732066726f6d20707265646566696e656420746f6b656e2072656769737472792063616e2062652061636365707465645469746c65457363726f773a20436f6e747261637420686173206265656e2075736564206265666f7265a265627a7a72315820f8facff86a5eec83730e842bdb2c1ccd9a4282130602113aadfd3bb3754b635764736f6c63430005100032",
  "source": "pragma solidity ^0.5.16;\n\nimport \"./ERC721.sol\";\nimport \"./ITitleEscrow.sol\";\nimport \"./ITitleEscrowCreator.sol\";\n\ncontract HasNamedBeneficiary is Context {\n  address public beneficiary;\n\n  constructor(address _beneficiary) internal {\n    beneficiary = _beneficiary;\n  }\n\n  modifier onlyBeneficiary() {\n    require(isBeneficiary(), \"HasNamedBeneficiary: only the beneficiary may invoke this function\");\n    _;\n  }\n\n  function isBeneficiary() internal view returns (bool) {\n    return _msgSender() == beneficiary;\n  }\n}\n\ncontract HasHolder is Context {\n  address public holder;\n\n  event HolderChanged(address indexed previousHolder, address indexed newHolder);\n\n  constructor(address _holder) internal {\n    holder = _holder;\n    emit HolderChanged(address(0), _holder);\n  }\n\n  modifier onlyHolder() {\n    require(isHolder(), \"HasHolder: only the holder may invoke this function\");\n    _;\n  }\n\n  function isHolder() internal view returns (bool) {\n    return _msgSender() == holder;\n  }\n\n  function _changeHolder(address newHolder) internal {\n    require(newHolder != address(0), \"HasHolder: new holder is the zero address\");\n    emit HolderChanged(holder, newHolder);\n    holder = newHolder;\n  }\n}\n\ncontract TitleEscrow is Context, ITitleEscrow, HasNamedBeneficiary, HasHolder, ERC165 {\n  event TitleReceived(address indexed _tokenRegistry, address indexed _from, uint256 indexed _id);\n  event TitleCeded(address indexed _tokenRegistry, address indexed _to, uint256 indexed _id);\n  event TransferOwnerApproval(uint256 indexed _tokenid, address indexed _from, address indexed _to);\n  event TransferTitleEscrowApproval(address indexed newBeneficiary, address indexed newHolder);\n\n  // ERC165: Interface for this contract, can be calculated by calculateSelector()\n  // Only append new interface id for backward compatibility\n  bytes4 private constant _INTERFACE_ID_TITLEESCROW = 0xdcce2211;\n\n  enum StatusTypes {Uninitialised, InUse, Exited}\n  StatusTypes public status = StatusTypes.Uninitialised;\n\n  // Information on token held\n  ERC721 public tokenRegistry;\n  uint256 public _tokenId;\n  uint256 public tokenPrice;\n  uint256 public buyBackPrice;\n\n  // Factory to clone this title escrow\n  ITitleEscrowCreator public titleEscrowFactory;\n\n  // For exiting into title escrow contracts\n  address public approvedBeneficiary;\n  address public approvedHolder;\n\n  // For exiting into non-title escrow contracts\n  address public approvedOwner;\n\n  // Destination to transfer token to, after purchase\n  address public contractDest;\n\n  //TODO: change ERC721 to address so that external contracts don't need to import ERC721 to use this\n  constructor(\n    ERC721 _tokenRegistry,\n    address _beneficiary,\n    address _holder,\n    address _titleEscrowFactoryAddress\n  ) public HasNamedBeneficiary(_beneficiary) HasHolder(_holder) {\n    tokenRegistry = ERC721(_tokenRegistry);\n    titleEscrowFactory = ITitleEscrowCreator(_titleEscrowFactoryAddress);\n    _registerInterface(_INTERFACE_ID_TITLEESCROW);\n  }\n\n  // 'Fallback function'. It is used to receive ethers, and call the buyBackToken or buyToken afterwards.\n  // If sender is beneficiary, then he wants to buy back the token.\n  // If not, then it is an financer that wants to buy the token.\n  function() external payable {\n    if (msg.sender == beneficiary) {\n      buyBackToken();\n    } else {\n      buyToken();\n    }\n  }\n\n  // Sets the token deal to trade it. The prices and destination are fixed, and cannot be changed anymore after it is set in the contract.\n  // Note that only the holder can set this deal.\n  function setTokenDeal(\n    uint256 price,\n    uint256 price2,\n    address dest\n  ) public isHoldingToken onlyHolder {\n    require(tokenPrice == 0, \"TitleEscrow setTokenDeal: Cannot adjust tokenPrice after set\");\n    require(buyBackPrice == 0, \"TitleEscrow setTokenDeal: Cannot adjust buyBackPrice after set\");\n    require(contractDest == address(0), \"TitleEscrow setTokenDeal: Cannot adjust contractDest after set\");\n    tokenPrice = price;\n    buyBackPrice = price2;\n    contractDest = dest;\n  }\n\n  // Gets the token deal that was set before and returns it.\n  function getTokenDeal()\n    public\n    view\n    isHoldingToken\n    returns (\n      uint256,\n      uint256,\n      address\n    )\n  {\n    return (tokenPrice, buyBackPrice, contractDest);\n  }\n\n  // Gets the token price that was set before.\n  function getTokenPrice() public view returns (uint256) {\n    return tokenPrice;\n  }\n\n  // Gets the buy back price that was set before.\n  function getBuyBackPrice() public view returns (uint256) {\n    return buyBackPrice;\n  }\n\n  // Gets the destination address (the new holder), so after payment the holder will change to this new address.\n  function getContractDest() public view returns (address) {\n    return contractDest;\n  }\n\n  // Returns the ether balance stored in the contract.\n  function getBalance() public view returns (uint256) {\n    return address(this).balance;\n  }\n\n  // Buying a token. If the buyer had paid more than was set, the remaining funds will be transferred back.\n  // After payment, the holder is immediately changed to contractDest. And the beneficiary receives the money.\n  function buyToken() public payable isHoldingToken {\n    require(tokenPrice > 0, \"TitleEscrow buyToken: tokenPrice was not set, thus you cannot buy\");\n    require(msg.value >= tokenPrice, \"TitleEscrow buyToken: have not received enough funds to buy the token\");\n\n    if (msg.value > tokenPrice) {\n      msg.sender.send(msg.value - tokenPrice);\n    }\n\n    address payable payable_beneficiary = address(uint160(beneficiary));\n    payable_beneficiary.send(tokenPrice);\n    _changeHolder(contractDest);\n  }\n\n  // Buying back the token. This function is called by the importer.\n  // After payment, the importer will immediately become the new holder of the token.\n  function buyBackToken() public payable isHoldingToken {\n    require(buyBackPrice > 0, \"TitleEscrow buyBackToken: buyBackPrice was not set, thus you cannot buy\");\n    require(\n      msg.value >= buyBackPrice,\n      \"TitleEscrow buyBackToken: have not received enough funds to buy back the token\"\n    );\n    require(msg.sender == beneficiary, \"TitleEscrow buyBackToken: only beneficiary can buy back the token\");\n\n    if (msg.value > buyBackPrice) {\n      msg.sender.send(msg.value - buyBackPrice);\n    }\n\n    address payable payable_holder = address(uint160(holder));\n    payable_holder.send(buyBackPrice);\n    _changeHolder(beneficiary);\n  }\n\n  function onERC721Received(\n    address operator,\n    address from,\n    uint256 tokenId,\n    bytes calldata data\n  ) external returns (bytes4) {\n    require(status == StatusTypes.Uninitialised, \"TitleEscrow: Contract has been used before\");\n    require(\n      _msgSender() == address(tokenRegistry),\n      \"TitleEscrow: Only tokens from predefined token registry can be accepted\"\n    );\n    _tokenId = tokenId;\n    emit TitleReceived(_msgSender(), from, _tokenId);\n    status = StatusTypes.InUse;\n    return bytes4(keccak256(\"onERC721Received(address,address,uint256,bytes)\"));\n  }\n\n  function changeHolder(address newHolder) public isHoldingToken onlyHolder {\n    _changeHolder(newHolder);\n  }\n\n  modifier allowTransferOwner(address newOwner) {\n    require(newOwner != address(0), \"TitleEscrow: Transferring to 0x0 is not allowed\");\n    if (holder != beneficiary) {\n      require(newOwner == approvedOwner, \"TitleEscrow: New owner has not been approved by beneficiary\");\n    }\n    _;\n  }\n\n  modifier allowTransferTitleEscrow(address newBeneficiary, address newHolder) {\n    require(newBeneficiary != address(0), \"TitleEscrow: Transferring to 0x0 is not allowed\");\n    require(newHolder != address(0), \"TitleEscrow: Transferring to 0x0 is not allowed\");\n    if (holder != beneficiary) {\n      require(newBeneficiary == approvedBeneficiary, \"TitleEscrow: Beneficiary has not been endorsed by beneficiary\");\n      require(newHolder == approvedHolder, \"TitleEscrow: Holder has not been endorsed by beneficiary\");\n    }\n    _;\n  }\n\n  modifier isHoldingToken() {\n    require(_tokenId != uint256(0), \"TitleEscrow: Contract is not holding a token\");\n    require(status == StatusTypes.InUse, \"TitleEscrow: Contract is not in use\");\n    require(tokenRegistry.ownerOf(_tokenId) == address(this), \"TitleEscrow: Contract is not the owner of token\");\n    _;\n  }\n\n  function approveNewOwner(address newOwner) public isHoldingToken onlyBeneficiary {\n    emit TransferOwnerApproval(_tokenId, beneficiary, newOwner);\n    approvedOwner = newOwner;\n  }\n\n  function _transferTo(address newOwner) private {\n    status = StatusTypes.Exited;\n    emit TitleCeded(address(tokenRegistry), newOwner, _tokenId);\n    tokenRegistry.safeTransferFrom(address(this), address(newOwner), _tokenId);\n  }\n\n  function transferTo(address newOwner) public isHoldingToken onlyHolder allowTransferOwner(newOwner) {\n    _transferTo(newOwner);\n  }\n\n  function transferToNewEscrow(address newBeneficiary, address newHolder)\n    public\n    isHoldingToken\n    onlyHolder\n    allowTransferTitleEscrow(newBeneficiary, newHolder)\n  {\n    address newTitleEscrowAddress =\n      titleEscrowFactory.deployNewTitleEscrow(address(tokenRegistry), newBeneficiary, newHolder);\n    _transferTo(newTitleEscrowAddress);\n  }\n\n  function approveNewTransferTargets(address newBeneficiary, address newHolder) public onlyBeneficiary isHoldingToken {\n    require(newBeneficiary != address(0), \"TitleEscrow: Transferring to 0x0 is not allowed\");\n    require(newHolder != address(0), \"TitleEscrow: Transferring to 0x0 is not allowed\");\n\n    emit TransferTitleEscrowApproval(newBeneficiary, newHolder);\n\n    approvedBeneficiary = newBeneficiary;\n    approvedHolder = newHolder;\n  }\n}\n",
  "sourcePath": "/home/joasiee/projects/tokenized_if/packages/tradetrust/contracts/TitleEscrow.sol",
  "compiler": {
    "name": "solc",
    "version": "0.5.16+commit.9c3226ce.Emscripten.clang"
  },
  "schemaVersion": "3.3.4",
  "updatedAt": "2021-04-05T14:42:18.038Z",
  "devdoc": {
    "methods": {
      "supportsInterface(bytes4)": {
        "details": "See {IERC165-supportsInterface}.     * Time complexity O(1), guaranteed to always use less than 30 000 gas."
      }
    }
  },
  "userdoc": {
    "methods": {}
  }
}